:100000000C94BF080C94DA080C94DA080C94DA0803
:100010000C94DA080C94DA080C94DA080C94DA08D8
:100020000C94DA080C94DA080C941B0B0C943C0B1F
:100030000C94DA080C94DA080C94DA080C94DA08B8
:100040000C94DA080C94DA080C94DA080C94DA08A8
:100050000C94DA080C94DA080C94DA080C94DA0898
:100060000C94DA080C94DA080C94DA080C94DA0888
:100070000C94DA080C94DA080C94DA080C94DA0878
:100080000C94DA080C94DA080C94DA080C94DA0868
:100090000C94DA080C94DA080C94DA080C94DA0858
:1000A0000C94DA080C94DA080C94DA08020999A284
:1000B00006BF9EBEDA3CDB34EA560F9C9B95A8D265
:1000C000076D5E1385695003846B540B7568520786
:1000D0008C9AB6CFFD7878662FDC3AD72DB2F36ACA
:1000E000560F7D785324CAF76C3BD528D2076D5044
:1000F00013858373674AF76C3BF46A37CDF9510176
:10010000806321A9D003846B542AB7EC3BF46A5670
:100110002EDE3EFE5F1FB8199BA2D3DCF8F9AA04BD
:1001200050032856B2F96C454278E5AC6ED1FA72AC
:100130001AA66C6409FB378773529376EFA8107385
:10014000BEBE4FC6E95FBA5219C701B3C336556088
:100150004ED8FD87F8016D7F3F44210AFDB703CBE0
:10016000E2A8F5DAC67F0D6D7D200C4F659EA6EBEB
:100170000C54DB66CBE87734241AE49283A1F9B1FE
:10018000F0FE19C0E5B831495FA018461EA0A1F0E5
:10019000B43A54A3094BE1F48A3696A8A4402263EA
:1001A000F6895E5570C1069F0C0FC3A7C98366CB45
:1001B00064C8F13DE190B346A3D58DF9B12356074C
:1001C0005D71E4AE59C543A50D9F2826932147983C
:1001D0005DD3DEFB33D625A11BFF35AF2F5F78C47F
:1001E000C7F41A14E369A98103FC93E7DB82046C6A
:1001F0004CE366DD355469F2E032EBACAA558C680D
:10020000EB0A8F75F0D587FF164A4EBDDDED4BA189
:1002100080930A02950A22644FC9288217567FC428
:100220004518C9ACA71924497EFF9A7B9110143355
:10023000E1A67BAD7C9E795EA01534C3DF9C4FC0E8
:10024000AC6F0D7EE6F8FA0E2516EAA8BF552FD83A
:100250004B622A06819399CB621F7F85B210CCC076
:1002600028FDDA7B165A0A07C3A4C2F69E3B31AAC0
:1002700050EDEC073C7E572DC5A5ED00977901E9BF
:100280008412F50FBD61390466EC440F1F1433046A
:100290002D24DD7BFCC0832327766F50264ED8CBE0
:1002A00067556822C32718F13AE84385556314D08F
:1002B0006A07B566FA28C85A89DCCBC2023F514B9F
:1002C000C4D2CEB90527710F351D50E7783BB22453
:1002D000AF3D5A16DE7D4C9AE32DD7872E21355837
:1002E000D57D4C40D013607B508018CD891151C70B
:1002F000FBB78811F421548837AD8CB2870F699E03
:10030000A4EAAA1CB9A3C0BB01DD00D7A9CC99847B
:100310002B914170AA568CE5BD48D1D409C08155B6
:10032000C9640B95FBD68495391BDA7AE886D9ED3A
:10033000BCE2F2089E17EE3A10B67CB932E4A21283
:10034000D6C9CE95B8AA4647DA4F1EE8B091D096E6
:100350008CEE1D847C11C2C7AB99F161E5CED90E3C
:10036000794ED929F511611184DA0D5B730C5BA20A
:1003700099BAABAEF69B57193CD61D74010D1BF80C
:10038000ECE35D0075C02B40AAF7E4FDDA960AA401
:100390003742B33F6D571F7F09E793F00374C47B67
:1003A000AEFAA54B10D0DDD890262EDF9B4BF6047D
:1003B00047F63ED0A26B49228F5C9E3265CDD13F7D
:1003C00060DD74F432BFA51E16C7981AC79C9D083D
:1003D0006813303E400D8AB4BE5DBCFC6D84D425EC
:1003E000BF5BE0F1FDA4A11725FB82703E5D1A52B0
:1003F0004851A8FCE2BE4A253E08AF5E1E5E506131
:1004000008BC3855BD89A1912F27C922794E4D16B8
:100410000D3A53C48B3328C67878870FF852834C33
:100420006A73F53544EED9A4B4638166DA123A12E0
:100430004096880A72A15471E17EAFF79912E38564
:100440007D6FD246D2EB1CFF9BFC2FC8279F0B3A37
:1004500035BDE85764C8A9C36D86900C15C903B6AD
:10046000C24E9BCBB71119B3B66C6E2725EFC3A450
:100470004B5F1CC5AA03EB3A5992F3479D59D474BC
:10048000E98FE72ECCB81014EFA6452C422D7554F9
:10049000F83172C4BF3FB5F15F5284E57E219F15EC
:1004A0000932B3C788FA8448C6ACB5FF994843A659
:1004B0009BF6FA20CEDCBBAC595F3B8409C54A826F
:1004C000D04F193CE77F3E6EADDC69712D6858B0A6
:1004D00040868F1D3E13D1D177BA93F11377B52B98
:1004E0003E21912F81B0A85061A549F0C5A5DC4CF3
:1004F000D1B7E8F3FCC81B24497598A3662AC78BBB
:1005000037140F1C7B040B7B3D3052A77C9F288D3A
:10051000862E69E8D19F686DC6D94B5C17CAEA7D03
:100520009E848EC65E478F026324AD44A82D2DEDB8
:10053000A1C502F40B7C3B746AF3055E9C8C7D7B49
:100540004700293C1301192EB1B3956C02A2C629AC
:100550005DD56B43C2A33CDB6E16E5D598CA444F0C
:100560008D7F0B750EA76E49E7F7BFEA537B309B73
:10057000507DD35301060DAC5A42471E49964B8716
:1005800082A49F2AAF9F6DFB77A7F980346D6D8899
:1005900055BF67CEFEB1D5B967EA8277ABBB9B8406
:1005A000391D255B24F1CAF70B996F9B6F0476B157
:1005B00030BA55254F0F0553BB52642349E2ACA80E
:1005C0004D4A9E3CFC467438CFD77F11FF674B1FC6
:1005D000C5AAC1D61C068EC718682362BB87B21293
:1005E000DFF3FD7D0160725E725617A799BBEB0FBA
:1005F0004D4ACDD3E10786E6CF8149E521435D7BB6
:10060000E34B8E342F7ABC926751A84463C7556B75
:100610000311FAC58E46A353FDB779891E0C43A872
:10062000DFEB5D7C43B2A3AE263AB0DF8AB0AD8388
:10063000553A2D93610786C7EC47C51CB200DF060B
:10064000280E86ED9B3B33FBB662A365375DC4B0D5
:10065000F7D1CEA5CBEFF68AB0289B75B5E0D44391
:10066000E2782D9F83B99344836470A24CD8B64F2F
:10067000935CA13434003964305215122DDD7FB6FD
:10068000866E43ECAFB52AF588D18347EE51DB9EE9
:100690005A50E81B75B50196C70E3F189020E2A08E
:1006A00024568CFE5ECE986DB9A9F8D7C03C35783B
:1006B0004E934D805A339118EB8B66315AA7B48014
:1006C000826A89BE4F60EE701511C47F444C80DE93
:1006D000853E592F142FBB50EE18AE68151AB4CEB4
:1006E000F346C801E3C3B2AE9D5184ED1F15CFE1BF
:1006F000F62922A5C2968C9306B55B7278CA37D2CA
:10070000FC38C2C3047BF283F0F56BD90F4ADD607D
:100710006A4EE9089BF4E33F2B0EAAB7EC4E93A177
:100720002E860DF288C3A6FA342B95349011F4234B
:10073000E1C5B3821244C0191BFA5B96DA749A576A
:10074000E360B663769A4050F3B92610EB1E9661CB
:10075000E95951B4BA5BCB4CBEDFEA1FF4FEBD9D34
:10076000FE086693A21AF1EC4881BE7642A8CB340B
:10077000017A04E7F3CCB6FC6DA406E5EABC359C2F
:100780004C23B3F2A8097B21C68DF298332BD1F705
:1007900072F95B11D9752F93FCB9B9A8A85E883A94
:1007A000CFCD243CE296ED63D6DD220C43B0DBC412
:1007B000177B6CAB331F74B8C7984D3DA0E6CDCD09
:1007C00098C64FD7FA41A291455CF7F4C8276F0845
:1007D0009BE4C14F97BC12B5CAC362B1399666BBE0
:1007E000AAD4FE751E253C12982F7A0F691BEDAC1A
:1007F000BAF0140091D4BDAA0CAF1843D18668F0AA
:100800003B7899467EBDB1E963BB59AE6761521131
:100810002979E4E267CA1FA599F33DF0A01F907EF5
:10082000098DCF4B5717F88D638C5584D203A1F9EE
:10083000B1DB8F6F874660BBA2FAE117EF46B46A5F
:100840008C52A9BC6223E179D078CAC23C3DA12A6E
:10085000B684BBCD465F0BCC4440B72FD03131833B
:1008600032443D62545E16ED5D180300DC8D94CA7F
:10087000F4285BC63E2AE852FB6D39C0846E0661DF
:100880008FD16F34CF44AC1301F86FA54AACEA6046
:10089000F973B046CE1105D7F7FDBF55B576FA0707
:1008A00019386ED368A761A5A97017599159BA5024
:1008B0007AA2615FF378FF57A0C8D9D4F9B38C7AD4
:1008C000AB7C2E964C203B9D3073DC40CE9421C5F2
:1008D00012FA208877FB1EB585C2CA0DF59A26113B
:1008E000219180156C02D7B22882350175104C1405
:1008F000AD945918FB93FBB37D3C8321BA441D7220
:10090000ECD9540A172C2E761B9B3620C4ED228678
:10091000632E0AC816D70830BB0DA7A26435FE7D2A
:10092000407CFD14B29C7775E938B3FD1CDC98CD92
:100930000E5AEF8CDA335B7739D3A02A45EB683354
:10094000015C3E02043138631A7F65F0B5E7E34588
:10095000A16A50DF4145956D0A1EE8632AB61EBBA9
:1009600067D3C6DD04C99218B23E6BCA570B0C4D53
:1009700010368F7962DD0327EF189C8D73CFE5E782
:100980008E8CA0233F6021D14154A6D549D4383C58
:100990007BDED42912B5A0FAB41E989267EB8927A2
:1009A0004543E2938266EEF9C2AD512AD3D0E549C0
:1009B000302462F81ADA3D0C9DB9104577BEB76055
:1009C0004BC126CF3C3C4FDA7FF34AC322A66E9838
:1009D000389EA05B27316283274CFC985CBA20B715
:1009E0008E5C092B4CDAF281EA1DB6A39A6F6FB3C5
:1009F000676800DD20564CF9088B1BF1E0A73062D8
:100A000095BF4F5DB61EA2FCBACA77C9ECFBB638DB
:100A10003DFE768AAF01DEC6F7BD5654B254840B54
:100A2000FC57AFEB298A87388E91580223B2374C96
:100A30004A4AEA03DBDEAA886ABA7284E2B0FC6939
:100A400023E179941EA8AD207FDE5AC6AE1A5A83E0
:100A5000532A978599158191E3CDC0694ED99C7C25
:100A6000231E1D5436D772F7BACF428ACA482EDFEA
:100A7000A5C2218CBA7037EAAC7B4B86D52D78B7EE
:100A80002550F5829FBBC68CC23E8831E4AE0AA9D0
:100A9000612504D23883E28CA3FBE40C735D479C90
:100AA000D2F07A89DCAC3781F6A08E0A7F1135430B
:100AB000B56254321950D432198A19A718F11BAAF9
:100AC000266F6249E4B448694EEB028A324B0D0D41
:100AD000E087DBC7994AF74DF97043909A33825506
:100AE000238331423266DB35FB424B1EEBF6F0B618
:100AF000DCE95960CA9408856F0D5A00E345FDFB97
:100B000098E2E4505DC8B1173DCA10562F9DD1E759
:100B1000121DD8B30C374764DC3C2161FF1741DD5F
:100B20008D23EB0D4D905AB63939E4185477CAFC31
:100B3000710C7C463E685676A03C97A80D9CE2A9B5
:100B400017F10447E80A79B5F3F8BCDF4579285175
:100B50006D3A34BF98BC833A1AD82BAA3753BBBC22
:100B600012D2B47CAAF3D2BA7FDB9D123583F0296E
:100B700037090DE46EA51E71DF03EB328E4B8C74CA
:100B800002823FC827D70D9E8F6EDD93796EC0C756
:100B9000243E28938179D75FB50C083DF9110206F0
:100BA000301E87388C77390FF3379D9DC1C6185C8E
:100BB000450006112235EB7039E833F65BB131742C
:100BC000CE468D12A9647A2FB1D01BF7C08E5BF38D
:100BD000F0CC9242E08EBBE523916F55C18129850F
:100BE00080932EB9B9E44D6CB9A7828FB9A855FB93
:100BF000FDF3C5A6430C3C32130A4B7BEDBAC66627
:100C00008C55A540B4A52CAEC16C4E66990001C7A9
:100C10006A82D8CA95CF9985F79408D26F081B725B
:100C2000934B58BD9E813E085DAC72E8FA13ED7E91
:100C300011C77313E7C513BA98F124CB288936D3AB
:100C40001D80506E577CB9264B36A46562AE928EDD
:100C50002F5F683CA3F5311BFBCB7D4D6711BFFDBA
:100C6000C0E977939FBD5F0894AA657684EE196BFF
:100C70007138051A3C3CC5D2A7037AC6698806C7F5
:100C8000CAA3805EAA917A797BBBA74EF8901AE03E
:100C9000F8BC7ACFAE75DF7E58E11102E217213839
:100CA00076C5FC0A15FD3A4373689027B9A5E3861B
:100CB0002F65FABC6CD8343B61503548021731219E
:100CC000F29FA25BD746637179BF9C7C10B08A51BA
:100CD00016BD6F843F3EF8921E894BDA2B8A6E2731
:100CE000835272FCB6FE45CC53FCA258CA8DD51374
:100CF00000EAEFE7F7B550DD7A81DC539108C2A333
:100D00002A0A60AE080C8CE243133E9EFCAE86C6F7
:100D10009AFF0D1C54361A9E4B8E6B2CB6DAACA182
:100D2000624C450B676B7BC4CF96EDCDCB9DD99ABA
:100D3000273E57FE126AB3F0CE95A5351051C94F24
:100D40008978FDE7058F35C15ECF914E6DDB0002DE
:100D500043A5D9D317213C30FE511E40FA2A0E6B11
:100D6000703AEBF295607CCEF6E19F147D7132AE65
:100D7000B626C79C73604AE3F80D3E3397409FAD9B
:100D8000C8A5FDA94E89F3CC09FF326E4F72AE495A
:100D9000DB280BFCBB255B7702B2D9B69D7923AA71
:100DA0007CAA9A7FE720C6E217BE0E707B8E4C9815
:100DB0009648CB63FE51F4C9154BCC2DADBAC02774
:100DC000349313FC2362FA87350B7ECAC00432E5E4
:100DD000BD1BD0BA8649ED9BD25EAD1E41A27A22E0
:100DE0007E49D6BED9D31A1554C2688DD046CA677B
:100DF0005EC7AF9D3F2E22013E780A27090800B446
:100E0000105AA663A7433C18CE9EC008C940B5BB84
:100E10004F1814FAC13253131EAB46CCDBD2DEF5A9
:100E2000AF83E33C1051E5720E635EE222457441EC
:100E3000BA853B84F56C9DEAE519019435FF4CAF0A
:100E40005FB7866EBE8E1DAD58964F8D4848C15611
:100E50001C28D6574A9FFF4C4832F34158FE35E8CC
:100E600094B48CCE6D6DFB73A7F9F0072E8B35D73C
:100E7000660F7EDC9A27E649CBB225431B250E0977
:100E8000FD07584407421E3F4CB0B52753774FF338
:100E90000FEEFFBACDB906F9B3A2749697A3AE9F31
:100EA000AE0811CB2AC53AD04FA64BB665B67F889F
:100EB000E3296F88C51545862FEB139549A75890F0
:100EC000C5BA364EDCEEFCD3BA4F0A67CBB581907B
:100ED000B4AFA1370E0A012A5BD9065FF77BBC329B
:100EE00024C81B0CCCC1EF69D2242794BCD991E053
:100EF00053F2997E21D2ACA0B4423F04E9B100394B
:100F0000C2339DC14D2E0E8F0BE573B4286BD88470
:100F1000536BC1393E4CC3A8B3DF983B2C73FB8C99
:100F2000306AD4273AE8CCCFD41DFA5BE1F42C44E4
:100F3000CC87C413A54AF8802686F70C2466ED36C4
:100F4000197686EC1854E125AB934DFA53CF1CBFAC
:100F5000F8520172A4DFFA072FD7E762BAC515C0AD
:100F6000AC5750FFB6579492040878A90ED1838EDF
:100F700087F91DBE5F7E57F18591A1A4453143EDF0
:100F8000D5587069CB256B5EF789C8908E78B017FD
:100F9000EE321047F4A847775EE7919CB82475CEEF
:100FA000BDF59E5AA65CE973F4194604ADB4240657
:100FB0000C722DCF12E59BECBAE68AAF5E37238721
:100FC0002BBD59726FC73448205B85F8B0F55F2B95
:100FD000FBD63D0073140985DABE2DB8E6F6CD0CBC
:100FE0005EFB4D4843A7BA55FDF1B171A2B220E7AF
:100FF000D5DC013B568D8E7F4928E6ED301CAEC610
:101000003851156C8EA6FAD51E9D8DA1F6CD105EB9
:101010001CA8DF559DF477FBA496BAD224316E64E8
:1010200030533E87A831C2DE81E0537642C6652A3E
:10103000976A7A37ED6E1CB1C069E37177A1F74802
:10104000055212074C0ECA5CC9A5BE2301DEA9D108
:1010500065BF3B4C04CE731B6015659E9A617B4057
:1010600063849E513DB474BEE9BC1CBC0C21D568A0
:1010700092B289662C7437BA2906F30D81952081C6
:10108000C86B050577C25BE2893FF0EAE47CB7658F
:101090004DD92C7255A6248E7F5D38D30588736494
:1010A0004AF76C5A178D38FB52BE00010000E11060
:1010B0001200020000F3102200220000151145006A
:1010C000210000051109000300005A110401030961
:1010D000045E11100203090470110C000001C1121A
:1010E000001201000200000040C0167E0400010151
:1010F00002000109022200010100C03209040000BF
:101100000103010100092111010001224500070529
:10111000830306000105010902A10105091901293E
:10112000051500250195057501810295017503815D
:101130000105010930093116018026FF7F36018043
:1011400046FF7F75109502810609381581257F3588
:1011500081457F750895018106C0040309041003C9
:101160004D00660067004E0061006D0065000000E4
:101170000C034D006F007500730065000000112422
:101180001FBECFEFDAE0DEBFCDBF11E0A0E0B1E0DF
:10119000E8E5F9E102C005900D92A231B107D9F757
:1011A00011E0A2E1B1E001C01D92A431B107E1F765
:1011B0002AD0D0C30C940000289880688EBD0DB44E
:1011C00007FEFDCF6EBD0DB407FEFDCF80E58A950D
:1011D000F1F7289A0895E6B186B1E295E695E770B1
:1011E000881F8827881FE270E82B80911201880FE2
:1011F000880FE82BE0931201F0E0EF70F070E05000
:10120000FF4F80810895CF92DF92EF92FF920F936C
:101210001F93CF93DF9380E88093610081E08093F8
:10122000610053985B9A5198599A5098589A5298DD
:101230005A9A54985C9A3E98469A3F98479A249AAC
:101240002C9A859A8D9A849881988098889A8DD1C5
:10125000A3D18823E9F388E893E128EC30E0F90191
:101260003197F1F70197D9F784B1876084B9239852
:101270002B9A8CE58CBD289A80E797E10197F1F7CE
:101280008BE366EB99DF88EB9BE028EC30E0F9011B
:101290003197F1F70197D9F728988AE6982F9A9510
:1012A000F1F7289A8A95F1F78AE36AE585DF84EFFA
:1012B00091E028EC30E0F9013197F1F70197D9F787
:1012C0008DE365E979DF80ED97E00197F1F78DE334
:1012D00065E172DF80E160E06FDF82E260E06CDF99
:1012E00083E16DE169DF80E29EE40197F1F783E13C
:1012F00068E162DF289882EE8EBD0DB407FEFDCF57
:101300008CEA90E03AE2232F2A95F1F7FC0101964E
:10131000E491EEBD0DB407FEFDCF20E18A3A9207BD
:1013200091F710E3812F8A95F1F7289A80E991E0EF
:101330000197F1F780E160E03FDF84E16FEF3CDF90
:1013400087E16FEF39DF88E160E036DF89E160E057
:1013500033DF8BE160E030DF8CE160E02DDF1A9558
:10136000F1F78CE26AE028DF8BE260E125DF08EE2E
:1013700013E0C8010197F1F78DE366E11DDFC801B5
:101380000197F1F78FE46EE017DFC8010197F1F7DD
:1013900080E560E011DF88E18A95F1F7289880E523
:1013A0008EBD0DB407FEFDCF80E78A95F1F71EBC18
:1013B0000DB407FEFDCF1EBC0DB407FEFDCF1EBC55
:1013C0000DB407FEFDCF1EBC0DB407FEFDCF1EBC45
:1013D0000DB407FEFDCF1EBC0DB407FEFDCF8AE0A5
:1013E0008A95F1F7289A08EE13E0C8010197F1F702
:1013F00080E090E067E1A0D280E090E095D2682F95
:101400008FE0DADEC8010197F1F780E560E0D4DE15
:1014100088E18A95F1F7289880E58EBD0DB407FE26
:10142000FDCF80E78A95F1F71EBC0DB407FEFDCF16
:101430001EBC0DB407FEFDCF1EBC0DB407FEFDCFD4
:101440001EBC0DB407FEFDCF1EBC0DB407FEFDCFC4
:101450001EBC0DB407FEFDCF8AE08A95F1F7289AED
:1014600008EE13E0C8010197F1F782E460E0A4DE22
:10147000C8010197F1F7809181008160809381001C
:1014800010928500109284000091840010918500D4
:1014900010928500109284009EDEE0908400F0900F
:1014A0008500109285001092840080E060E077D083
:1014B0008091840090918500CC27DD27C01BD10B43
:1014C000C05ED04E801B910BC81BD90B0E191F0993
:1014D000005310400C0F1D1F71E0C72ED12C8091BE
:1014E000E1008B7F8093E1008091E10082FFFCCFDF
:1014F0001092850010928400289AEE2423C089B1AE
:10150000499B02C020E001C024E0489B02C050E09B
:1015100001C052E04C9B02C040E001C048E04A9B41
:1015200002C030E001C030E190E063E0969587951D
:101530006A95E1F78C259D258170282B252B242B7E
:10154000232BE22A809184009091850080179107D7
:10155000B0F241DE682F80918400909185008C1755
:101560009D07C8F38E2D1BD0BACF81E08093D700A2
:1015700080EA8093D80082E189BD09B400FEFDCFE6
:1015800080E98093D8001092E0001092130188E067
:101590008093E20078940895809113010895982F24
:1015A0002FB7F89483E08093E900289880ED8EBDF2
:1015B0000DB407FEFDCF1EBC0DB407FEFDCF289A6B
:1015C0008AE08A95F1F7289880E58EBD0DB407FE74
:1015D000FDCF8AE08A95F1F71EBC0DB407FEFDCF62
:1015E0008EB51EBC0DB407FEFDCF8EB59093F100F5
:1015F0001EBC0DB407FEFDCF8EB58093F1001EBC5E
:101600000DB407FEFDCF8EB58093F1001EBC0DB466
:1016100007FEFDCF8EB58093F1001EBC0DB407FE12
:10162000FDCF8EB58093F1006093F1008AE3809343
:10163000E8002FBF08951F920F920FB60F9211244A
:101640008F938091E1001092E10083FF0FC0109210
:10165000E90081E08093EB001092EC0082E380933C
:10166000ED0088E08093F000109213018F910F90AD
:101670000FBE0F901F9018951F920F920FB60F92EA
:1016800011240F931F932F933F934F935F936F9367
:101690007F938F939F93AF93BF93EF93FF9310929A
:1016A000E9008091E80083FF29C14091F100309169
:1016B000F1008091F100682F70E02091F100922FED
:1016C00080E0682B792B8091F100A82FB0E0209169
:1016D000F100922F80E0A82BB92B1091F10000911E
:1016E000F10082EF8093E800363009F05AC021EB18
:1016F00030E1A90145505040F90137978591949107
:101700008617970701F5FA01859194918A179B072F
:10171000D1F49A012E5F3F4FF901659174912E5FCC
:101720003F4FF9014491212F30E0902F80E0282B8A
:10173000392B2F3F310519F010F02FEF30E024172F
:1017400058F4422F09C0295F3F4F495F5F4FF0E1D6
:10175000223E3F0789F6D2C05EEF8091E800282F35
:1017600030E0C90185709070892BB9F322FDC9C0A2
:10177000342F413408F030E4232FCB0106C0FC01A4
:101780000196E491E093F10021502223C1F7630F09
:10179000711D431B5093E8004423F9F63034E9F2FD
:1017A000B0C0353061F48EEF8093E8008091E8009E
:1017B00080FFFCCF862F80688093E300A2C0393081
:1017C00031F5442309F06EC0609313018EEF8093CE
:1017D000E8008BED90E121E02093E900FC01019607
:1017E000E491E093EB00EE2369F0AC014F5F5F4FB3
:1017F000FC0184918093EC00CA010196FA013491B6
:101800003093ED002F5F253039F78EE146C0383038
:1018100051F4403809F046C08091E80080FFFCCFC9
:10182000809113015EC03323C1F48091E80080FFF2
:10183000FCCF423811F080E00DC0A093E900809108
:10184000EB0090E025E0969587952A95E1F7817069
:101850001092E9008093F10039C0313011F033303B
:1018600009F54230F9F461157105E1F42A2F2F775B
:10187000822F81508430B0F48EEF8093E800209363
:10188000E9003330D9F189E18093EB0081E090E009
:1018900002C0880F991F2A95E2F78093EA00109200
:1018A000EA002FC0AB2B51F5413AF1F4313089F405
:1018B0008091E80080FFFCCF1092F1001092F100BF
:1018C0001092F1001092F1001092F1001092F100CC
:1018D00011C0333099F48091E80080FFFCCF8091F3
:1018E00010018093F10006C0413241F43B3031F4E5
:1018F000609310018EEF8093E80003C081E2809333
:10190000EB00FF91EF91BF91AF919F918F917F91EC
:101910006F915F914F913F912F911F910F910F9078
:101920000FBE0F901F901895F999FECF92BD81BD03
:10193000F89A992780B50895262FF999FECF1FBAF6
:1019400092BD81BD20BD0FB6F894FA9AF99A0FBEE8
:0819500001960895F894FFCF01
:1019580000FF0100010000FFFF0000010001FF007F
:0219680001007C
:00000001FF
